{
  "contractName": "DiGiDiMarketPlace",
  "abi": [
    {
      "constant": false,
      "inputs": [
        {
          "name": "spender",
          "type": "address"
        },
        {
          "name": "value",
          "type": "uint256"
        }
      ],
      "name": "approve",
      "outputs": [
        {
          "name": "",
          "type": "bool"
        }
      ],
      "payable": false,
      "stateMutability": "nonpayable",
      "type": "function"
    },
    {
      "constant": false,
      "inputs": [
        {
          "name": "usr",
          "type": "address"
        },
        {
          "name": "permission",
          "type": "bool"
        }
      ],
      "name": "updateApprover",
      "outputs": [
        {
          "name": "",
          "type": "bool"
        }
      ],
      "payable": false,
      "stateMutability": "nonpayable",
      "type": "function"
    },
    {
      "constant": true,
      "inputs": [],
      "name": "totalSupply",
      "outputs": [
        {
          "name": "",
          "type": "uint256"
        }
      ],
      "payable": false,
      "stateMutability": "view",
      "type": "function"
    },
    {
      "constant": true,
      "inputs": [
        {
          "name": "trackId",
          "type": "string"
        },
        {
          "name": "approved",
          "type": "bool"
        }
      ],
      "name": "approveMediaFile",
      "outputs": [
        {
          "name": "",
          "type": "bool"
        }
      ],
      "payable": false,
      "stateMutability": "view",
      "type": "function"
    },
    {
      "constant": false,
      "inputs": [
        {
          "name": "sender",
          "type": "address"
        },
        {
          "name": "recipient",
          "type": "address"
        },
        {
          "name": "amount",
          "type": "uint256"
        }
      ],
      "name": "transferFrom",
      "outputs": [
        {
          "name": "",
          "type": "bool"
        }
      ],
      "payable": false,
      "stateMutability": "nonpayable",
      "type": "function"
    },
    {
      "constant": false,
      "inputs": [
        {
          "name": "spender",
          "type": "address"
        },
        {
          "name": "addedValue",
          "type": "uint256"
        }
      ],
      "name": "increaseAllowance",
      "outputs": [
        {
          "name": "",
          "type": "bool"
        }
      ],
      "payable": false,
      "stateMutability": "nonpayable",
      "type": "function"
    },
    {
      "constant": false,
      "inputs": [],
      "name": "requestPayment",
      "outputs": [
        {
          "name": "",
          "type": "bool"
        }
      ],
      "payable": false,
      "stateMutability": "nonpayable",
      "type": "function"
    },
    {
      "constant": true,
      "inputs": [
        {
          "name": "account",
          "type": "address"
        }
      ],
      "name": "balanceOf",
      "outputs": [
        {
          "name": "",
          "type": "uint256"
        }
      ],
      "payable": false,
      "stateMutability": "view",
      "type": "function"
    },
    {
      "constant": false,
      "inputs": [
        {
          "name": "mediaId",
          "type": "bytes32"
        },
        {
          "name": "price",
          "type": "uint256"
        },
        {
          "name": "ipfsAddress",
          "type": "string"
        },
        {
          "name": "shareholders",
          "type": "address[]"
        },
        {
          "name": "shares",
          "type": "uint8[]"
        }
      ],
      "name": "registerMediaFile",
      "outputs": [
        {
          "name": "",
          "type": "bool"
        }
      ],
      "payable": false,
      "stateMutability": "nonpayable",
      "type": "function"
    },
    {
      "constant": false,
      "inputs": [
        {
          "name": "oldFileHash",
          "type": "bytes32"
        },
        {
          "name": "newFileHash",
          "type": "bytes32"
        },
        {
          "name": "newPrice",
          "type": "uint8"
        },
        {
          "name": "ipfsArray",
          "type": "string"
        }
      ],
      "name": "updateMediaFile",
      "outputs": [
        {
          "name": "",
          "type": "bool"
        }
      ],
      "payable": false,
      "stateMutability": "nonpayable",
      "type": "function"
    },
    {
      "constant": false,
      "inputs": [
        {
          "name": "spender",
          "type": "address"
        },
        {
          "name": "subtractedValue",
          "type": "uint256"
        }
      ],
      "name": "decreaseAllowance",
      "outputs": [
        {
          "name": "",
          "type": "bool"
        }
      ],
      "payable": false,
      "stateMutability": "nonpayable",
      "type": "function"
    },
    {
      "constant": false,
      "inputs": [
        {
          "name": "recipient",
          "type": "address"
        },
        {
          "name": "amount",
          "type": "uint256"
        }
      ],
      "name": "transfer",
      "outputs": [
        {
          "name": "",
          "type": "bool"
        }
      ],
      "payable": false,
      "stateMutability": "nonpayable",
      "type": "function"
    },
    {
      "constant": true,
      "inputs": [
        {
          "name": "source",
          "type": "string"
        }
      ],
      "name": "stringToBytes32",
      "outputs": [
        {
          "name": "result",
          "type": "bytes32"
        }
      ],
      "payable": false,
      "stateMutability": "pure",
      "type": "function"
    },
    {
      "constant": true,
      "inputs": [
        {
          "name": "owner",
          "type": "address"
        },
        {
          "name": "spender",
          "type": "address"
        }
      ],
      "name": "allowance",
      "outputs": [
        {
          "name": "",
          "type": "uint256"
        }
      ],
      "payable": false,
      "stateMutability": "view",
      "type": "function"
    },
    {
      "constant": true,
      "inputs": [],
      "name": "getNumOfMediaFiles",
      "outputs": [
        {
          "name": "",
          "type": "uint256"
        }
      ],
      "payable": false,
      "stateMutability": "view",
      "type": "function"
    },
    {
      "constant": false,
      "inputs": [
        {
          "name": "trackId",
          "type": "bytes32"
        }
      ],
      "name": "unregisterMediaFile",
      "outputs": [
        {
          "name": "",
          "type": "bool"
        }
      ],
      "payable": false,
      "stateMutability": "nonpayable",
      "type": "function"
    },
    {
      "inputs": [],
      "payable": false,
      "stateMutability": "nonpayable",
      "type": "constructor"
    },
    {
      "anonymous": false,
      "inputs": [
        {
          "indexed": false,
          "name": "",
          "type": "string"
        },
        {
          "indexed": false,
          "name": "",
          "type": "bytes32"
        }
      ],
      "name": "IPFSAddressEvent",
      "type": "event"
    },
    {
      "anonymous": false,
      "inputs": [
        {
          "indexed": false,
          "name": "",
          "type": "uint256"
        }
      ],
      "name": "GetMediaFilePriceEvent",
      "type": "event"
    },
    {
      "anonymous": false,
      "inputs": [
        {
          "indexed": false,
          "name": "",
          "type": "bytes32"
        }
      ],
      "name": "MediaIDEvent",
      "type": "event"
    },
    {
      "anonymous": false,
      "inputs": [
        {
          "indexed": true,
          "name": "from",
          "type": "address"
        },
        {
          "indexed": true,
          "name": "to",
          "type": "address"
        },
        {
          "indexed": false,
          "name": "value",
          "type": "uint256"
        }
      ],
      "name": "Transfer",
      "type": "event"
    },
    {
      "anonymous": false,
      "inputs": [
        {
          "indexed": true,
          "name": "owner",
          "type": "address"
        },
        {
          "indexed": true,
          "name": "spender",
          "type": "address"
        },
        {
          "indexed": false,
          "name": "value",
          "type": "uint256"
        }
      ],
      "name": "Approval",
      "type": "event"
    },
    {
      "constant": false,
      "inputs": [
        {
          "name": "mediaId",
          "type": "bytes32"
        }
      ],
      "name": "requestMediaFileStream",
      "outputs": [
        {
          "name": "",
          "type": "bool"
        }
      ],
      "payable": true,
      "stateMutability": "payable",
      "type": "function"
    },
    {
      "constant": false,
      "inputs": [
        {
          "name": "mediaId",
          "type": "bytes32"
        }
      ],
      "name": "getPrice",
      "outputs": [
        {
          "name": "",
          "type": "uint256"
        }
      ],
      "payable": false,
      "stateMutability": "nonpayable",
      "type": "function"
    }
  ],
  "bytecode": "0x6080604052600060085534801561001557600080fd5b5033600760006101000a81548173ffffffffffffffffffffffffffffffffffffffff021916908373ffffffffffffffffffffffffffffffffffffffff160217905550600060068190555033600960006101000a81548173ffffffffffffffffffffffffffffffffffffffff021916908373ffffffffffffffffffffffffffffffffffffffff1602179055506001600560003373ffffffffffffffffffffffffffffffffffffffff1673ffffffffffffffffffffffffffffffffffffffff16815260200190815260200160002060006101000a81548160ff02191690831515021790555061260d806101076000396000f3fe6080604052600436106101095760003560e01c8063868c528811610095578063a9059cbb11610064578063a9059cbb146108cc578063cfb519281461093f578063dd62ed3e14610a1b578063f435901f14610aa0578063f51a193014610acb57610109565b8063868c5288146104f657806395678c5f146107125780639a9bb23814610758578063a457c2d71461085957610109565b806323b872dd116100dc57806323b872dd1461030d57806331d98b3f146103a057806339509351146103ef57806363bdb94b1461046257806370a082311461049157610109565b8063095ea7b31461010e5780631563461b1461018157806318160ddd146101f657806320ae754e14610221575b600080fd5b34801561011a57600080fd5b506101676004803603604081101561013157600080fd5b81019080803573ffffffffffffffffffffffffffffffffffffffff16906020019092919080359060200190929190505050610b1e565b604051808215151515815260200191505060405180910390f35b34801561018d57600080fd5b506101dc600480360360408110156101a457600080fd5b81019080803573ffffffffffffffffffffffffffffffffffffffff169060200190929190803515159060200190929190505050610b35565b604051808215151515815260200191505060405180910390f35b34801561020257600080fd5b5061020b610c45565b6040518082815260200191505060405180910390f35b34801561022d57600080fd5b506102f36004803603604081101561024457600080fd5b810190808035906020019064010000000081111561026157600080fd5b82018360208201111561027357600080fd5b8035906020019184600183028401116401000000008311171561029557600080fd5b91908080601f016020809104026020016040519081016040528093929190818152602001838380828437600081840152601f19601f820116905080830192505050505050509192919290803515159060200190929190505050610c4f565b604051808215151515815260200191505060405180910390f35b34801561031957600080fd5b506103866004803603606081101561033057600080fd5b81019080803573ffffffffffffffffffffffffffffffffffffffff169060200190929190803573ffffffffffffffffffffffffffffffffffffffff16906020019092919080359060200190929190505050610e5b565b604051808215151515815260200191505060405180910390f35b3480156103ac57600080fd5b506103d9600480360360208110156103c357600080fd5b8101908080359060200190929190505050610f0c565b6040518082815260200191505060405180910390f35b3480156103fb57600080fd5b506104486004803603604081101561041257600080fd5b81019080803573ffffffffffffffffffffffffffffffffffffffff16906020019092919080359060200190929190505050610f79565b604051808215151515815260200191505060405180910390f35b34801561046e57600080fd5b5061047761101e565b604051808215151515815260200191505060405180910390f35b34801561049d57600080fd5b506104e0600480360360208110156104b457600080fd5b81019080803573ffffffffffffffffffffffffffffffffffffffff1690602001909291905050506110f7565b6040518082815260200191505060405180910390f35b34801561050257600080fd5b506106f8600480360360a081101561051957600080fd5b8101908080359060200190929190803590602001909291908035906020019064010000000081111561054a57600080fd5b82018360208201111561055c57600080fd5b8035906020019184600183028401116401000000008311171561057e57600080fd5b91908080601f016020809104026020016040519081016040528093929190818152602001838380828437600081840152601f19601f820116905080830192505050505050509192919290803590602001906401000000008111156105e157600080fd5b8201836020820111156105f357600080fd5b8035906020019184602083028401116401000000008311171561061557600080fd5b919080806020026020016040519081016040528093929190818152602001838360200280828437600081840152601f19601f8201169050808301925050505050505091929192908035906020019064010000000081111561067557600080fd5b82018360208201111561068757600080fd5b803590602001918460208302840111640100000000831117156106a957600080fd5b919080806020026020016040519081016040528093929190818152602001838360200280828437600081840152601f19601f82011690508083019250505050505050919291929050505061113f565b604051808215151515815260200191505060405180910390f35b61073e6004803603602081101561072857600080fd5b810190808035906020019092919050505061154b565b604051808215151515815260200191505060405180910390f35b34801561076457600080fd5b5061083f6004803603608081101561077b57600080fd5b810190808035906020019092919080359060200190929190803560ff169060200190929190803590602001906401000000008111156107b957600080fd5b8201836020820111156107cb57600080fd5b803590602001918460018302840111640100000000831117156107ed57600080fd5b91908080601f016020809104026020016040519081016040528093929190818152602001838380828437600081840152601f19601f82011690508083019250505050505050919291929050505061185e565b604051808215151515815260200191505060405180910390f35b34801561086557600080fd5b506108b26004803603604081101561087c57600080fd5b81019080803573ffffffffffffffffffffffffffffffffffffffff16906020019092919080359060200190929190505050611a21565b604051808215151515815260200191505060405180910390f35b3480156108d857600080fd5b50610925600480360360408110156108ef57600080fd5b81019080803573ffffffffffffffffffffffffffffffffffffffff16906020019092919080359060200190929190505050611ac6565b604051808215151515815260200191505060405180910390f35b34801561094b57600080fd5b50610a056004803603602081101561096257600080fd5b810190808035906020019064010000000081111561097f57600080fd5b82018360208201111561099157600080fd5b803590602001918460018302840111640100000000831117156109b357600080fd5b91908080601f016020809104026020016040519081016040528093929190818152602001838380828437600081840152601f19601f820116905080830192505050505050509192919290505050611add565b6040518082815260200191505060405180910390f35b348015610a2757600080fd5b50610a8a60048036036040811015610a3e57600080fd5b81019080803573ffffffffffffffffffffffffffffffffffffffff169060200190929190803573ffffffffffffffffffffffffffffffffffffffff169060200190929190505050611b08565b6040518082815260200191505060405180910390f35b348015610aac57600080fd5b50610ab5611b8f565b6040518082815260200191505060405180910390f35b348015610ad757600080fd5b50610b0460048036036020811015610aee57600080fd5b8101908080359060200190929190505050611b99565b604051808215151515815260200191505060405180910390f35b6000610b2b338484611c29565b6001905092915050565b6000600560003373ffffffffffffffffffffffffffffffffffffffff1673ffffffffffffffffffffffffffffffffffffffff16815260200190815260200160002060009054906101000a900460ff168015610bde5750600760009054906101000a900473ffffffffffffffffffffffffffffffffffffffff1673ffffffffffffffffffffffffffffffffffffffff168373ffffffffffffffffffffffffffffffffffffffff1614155b15610c3b5781600560008573ffffffffffffffffffffffffffffffffffffffff1673ffffffffffffffffffffffffffffffffffffffff16815260200190815260200160002060006101000a81548160ff0219169083151502179055505b6001905092915050565b6000600254905090565b6000600560003373ffffffffffffffffffffffffffffffffffffffff1673ffffffffffffffffffffffffffffffffffffffff16815260200190815260200160002060009054906101000a900460ff16610cf3576040517f08c379a00000000000000000000000000000000000000000000000000000000081526004018080602001828103825260258152602001806125bd6025913960400191505060405180910390fd5b610cfb612373565b60036000610d0886611add565b81526020019081526020016000206040518060800160405290816000820160009054906101000a900473ffffffffffffffffffffffffffffffffffffffff1673ffffffffffffffffffffffffffffffffffffffff1673ffffffffffffffffffffffffffffffffffffffff1681526020016000820160149054906101000a900460ff1615151515815260200160018201548152602001600282018054600181600116156101000203166002900480601f016020809104026020016040519081016040528092919081815260200182805460018160011615610100020316600290048015610e355780601f10610e0a57610100808354040283529160200191610e35565b820191906000526020600020905b815481529060010190602001808311610e1857829003601f168201915b505050505081525050905082816020019015159081151581525050600191505092915050565b6000610e68848484611e20565b610f018433610efc85600160008a73ffffffffffffffffffffffffffffffffffffffff1673ffffffffffffffffffffffffffffffffffffffff16815260200190815260200160002060003373ffffffffffffffffffffffffffffffffffffffff1673ffffffffffffffffffffffffffffffffffffffff168152602001908152602001600020546120bc90919063ffffffff16565b611c29565b600190509392505050565b60007fd8ccd30101f7cd17302cda0817e40bf34242aa086a06f05d48cbd69c04ee178a60036000848152602001908152602001600020600101546040518082815260200191505060405180910390a160036000838152602001908152602001600020600101549050919050565b6000611014338461100f85600160003373ffffffffffffffffffffffffffffffffffffffff1673ffffffffffffffffffffffffffffffffffffffff16815260200190815260200160002060008973ffffffffffffffffffffffffffffffffffffffff1673ffffffffffffffffffffffffffffffffffffffff1681526020019081526020016000205461214590919063ffffffff16565b611c29565b6001905092915050565b600080600a60003373ffffffffffffffffffffffffffffffffffffffff1673ffffffffffffffffffffffffffffffffffffffff1681526020019081526020016000205490506000600a60003373ffffffffffffffffffffffffffffffffffffffff1673ffffffffffffffffffffffffffffffffffffffff168152602001908152602001600020819055503373ffffffffffffffffffffffffffffffffffffffff166108fc829081150290604051600060405180830381858888f193505050501580156110ee573d6000803e3d6000fd5b50600191505090565b60008060008373ffffffffffffffffffffffffffffffffffffffff1673ffffffffffffffffffffffffffffffffffffffff168152602001908152602001600020549050919050565b6000815183511461119b576040517f08c379a00000000000000000000000000000000000000000000000000000000081526004018080602001828103825260328152602001806125196032913960400191505060405180910390fd5b60405180608001604052803373ffffffffffffffffffffffffffffffffffffffff168152602001600015158152602001868152602001858152506003600088815260200190815260200160002060008201518160000160006101000a81548173ffffffffffffffffffffffffffffffffffffffff021916908373ffffffffffffffffffffffffffffffffffffffff16021790555060208201518160000160146101000a81548160ff0219169083151502179055506040820151816001015560608201518160020190805190602001906112759291906123b3565b50905050600080905060008090505b84518160ff1610156113f757611298612433565b6040518060400160405280878460ff16815181106112b257fe5b602002602001015173ffffffffffffffffffffffffffffffffffffffff168152602001868460ff16815181106112e457fe5b602002602001015160ff168152509050600460008a81526020019081526020016000208190806001815401808255809150509060018203906000526020600020016000909192909190915060008201518160000160006101000a81548173ffffffffffffffffffffffffffffffffffffffff021916908373ffffffffffffffffffffffffffffffffffffffff16021790555060208201518160000160146101000a81548160ff021916908360ff1602179055505050503373ffffffffffffffffffffffffffffffffffffffff16868360ff16815181106113c057fe5b602002602001015173ffffffffffffffffffffffffffffffffffffffff1614156113e957600192505b508080600101915050611284565b50806114ea5760006114076121cd565b9050611411612433565b60405180604001604052803373ffffffffffffffffffffffffffffffffffffffff1681526020018360ff168152509050600460008a81526020019081526020016000208190806001815401808255809150509060018203906000526020600020016000909192909190915060008201518160000160006101000a81548173ffffffffffffffffffffffffffffffffffffffff021916908373ffffffffffffffffffffffffffffffffffffffff16021790555060208201518160000160146101000a81548160ff021916908360ff16021790555050505050505b611500600160065461214590919063ffffffff16565b6006819055507ff57b2c8d38a71002506306b32ba886193245cdbe9f596b91ed43c3d232425d9a876040518082815260200191505060405180910390a1600191505095945050505050565b60008061155783610f0c565b9050600081116115cf576040517f08c379a00000000000000000000000000000000000000000000000000000000081526004018080602001828103825260128152602001807f4d6564696120686173206e6f207072696365000000000000000000000000000081525060200191505060405180910390fd5b34811115611645576040517f08c379a00000000000000000000000000000000000000000000000000000000081526004018080602001828103825260158152602001807f4e6f7420656e6f7567682066756e64732073656e74000000000000000000000081525060200191505060405180910390fd5b6003600084815260200190815260200160002060000160149054906101000a900460ff16806116bd5750600560003373ffffffffffffffffffffffffffffffffffffffff1673ffffffffffffffffffffffffffffffffffffffff16815260200190815260200160002060009054906101000a900460ff165b611712576040517f08c379a00000000000000000000000000000000000000000000000000000000081526004018080602001828103825260298152602001806125946029913960400191505060405180910390fd5b61171b836121db565b50600061173182346120bc90919063ffffffff16565b90507fa47dee5a404001bb6f55a922e8869d7fdfcd35b8d4f2aa22e9db9cc99ee5ab2c6040518060400160405280600781526020017f6173646164617300000000000000000000000000000000000000000000000000815250856040518080602001838152602001828103825284818151815260200191508051906020019080838360005b838110156117d15780820151818401526020810190506117b6565b50505050905090810190601f1680156117fe5780820380516001836020036101000a031916815260200191505b50935050505060405180910390a13373ffffffffffffffffffffffffffffffffffffffff166108fc829081150290604051600060405180830381858888f19350505050158015611852573d6000803e3d6000fd5b50600192505050919050565b60003373ffffffffffffffffffffffffffffffffffffffff166003600087815260200190815260200160002060000160009054906101000a900473ffffffffffffffffffffffffffffffffffffffff1673ffffffffffffffffffffffffffffffffffffffff161415611a155760036000868152602001908152602001600020600080820160006101000a81549073ffffffffffffffffffffffffffffffffffffffff02191690556000820160146101000a81549060ff021916905560018201600090556002820160006119319190612466565b505060405180608001604052803373ffffffffffffffffffffffffffffffffffffffff1681526020016000151581526020018460ff168152602001838152506003600086815260200190815260200160002060008201518160000160006101000a81548173ffffffffffffffffffffffffffffffffffffffff021916908373ffffffffffffffffffffffffffffffffffffffff16021790555060208201518160000160146101000a81548160ff021916908315150217905550604082015181600101556060820151816002019080519060200190611a109291906123b3565b509050505b60019050949350505050565b6000611abc3384611ab785600160003373ffffffffffffffffffffffffffffffffffffffff1673ffffffffffffffffffffffffffffffffffffffff16815260200190815260200160002060008973ffffffffffffffffffffffffffffffffffffffff1673ffffffffffffffffffffffffffffffffffffffff168152602001908152602001600020546120bc90919063ffffffff16565b611c29565b6001905092915050565b6000611ad3338484611e20565b6001905092915050565b60006060829050600081511415611afa576000801b915050611b03565b60208301519150505b919050565b6000600160008473ffffffffffffffffffffffffffffffffffffffff1673ffffffffffffffffffffffffffffffffffffffff16815260200190815260200160002060008373ffffffffffffffffffffffffffffffffffffffff1673ffffffffffffffffffffffffffffffffffffffff16815260200190815260200160002054905092915050565b6000600654905090565b600060036000838152602001908152602001600020600080820160006101000a81549073ffffffffffffffffffffffffffffffffffffffff02191690556000820160146101000a81549060ff02191690556001820160009055600282016000611c029190612466565b5050611c1a60016006546120bc90919063ffffffff16565b60068190555060019050919050565b600073ffffffffffffffffffffffffffffffffffffffff168373ffffffffffffffffffffffffffffffffffffffff161415611caf576040517f08c379a00000000000000000000000000000000000000000000000000000000081526004018080602001828103825260248152602001806125706024913960400191505060405180910390fd5b600073ffffffffffffffffffffffffffffffffffffffff168273ffffffffffffffffffffffffffffffffffffffff161415611d35576040517f08c379a00000000000000000000000000000000000000000000000000000000081526004018080602001828103825260228152602001806124f76022913960400191505060405180910390fd5b80600160008573ffffffffffffffffffffffffffffffffffffffff1673ffffffffffffffffffffffffffffffffffffffff16815260200190815260200160002060008473ffffffffffffffffffffffffffffffffffffffff1673ffffffffffffffffffffffffffffffffffffffff168152602001908152602001600020819055508173ffffffffffffffffffffffffffffffffffffffff168373ffffffffffffffffffffffffffffffffffffffff167f8c5be1e5ebec7d5bd14f71427d1e84f3dd0314c0f7b2291e5b200ac8c7c3b925836040518082815260200191505060405180910390a3505050565b600073ffffffffffffffffffffffffffffffffffffffff168373ffffffffffffffffffffffffffffffffffffffff161415611ea6576040517f08c379a000000000000000000000000000000000000000000000000000000000815260040180806020018281038252602581526020018061254b6025913960400191505060405180910390fd5b600073ffffffffffffffffffffffffffffffffffffffff168273ffffffffffffffffffffffffffffffffffffffff161415611f2c576040517f08c379a00000000000000000000000000000000000000000000000000000000081526004018080602001828103825260238152602001806124d46023913960400191505060405180910390fd5b611f7d816000808673ffffffffffffffffffffffffffffffffffffffff1673ffffffffffffffffffffffffffffffffffffffff168152602001908152602001600020546120bc90919063ffffffff16565b6000808573ffffffffffffffffffffffffffffffffffffffff1673ffffffffffffffffffffffffffffffffffffffff16815260200190815260200160002081905550612010816000808573ffffffffffffffffffffffffffffffffffffffff1673ffffffffffffffffffffffffffffffffffffffff1681526020019081526020016000205461214590919063ffffffff16565b6000808473ffffffffffffffffffffffffffffffffffffffff1673ffffffffffffffffffffffffffffffffffffffff168152602001908152602001600020819055508173ffffffffffffffffffffffffffffffffffffffff168373ffffffffffffffffffffffffffffffffffffffff167fddf252ad1be2c89b69c2b068fc378daa952ba7f163c4a11628f55a4df523b3ef836040518082815260200191505060405180910390a3505050565b600082821115612134576040517f08c379a000000000000000000000000000000000000000000000000000000000815260040180806020018281038252601e8152602001807f536166654d6174683a207375627472616374696f6e206f766572666c6f77000081525060200191505060405180910390fd5b600082840390508091505092915050565b6000808284019050838110156121c3576040517f08c379a000000000000000000000000000000000000000000000000000000000815260040180806020018281038252601b8152602001807f536166654d6174683a206164646974696f6e206f766572666c6f77000000000081525060200191505060405180910390fd5b8091505092915050565b600080600390508091505090565b60008060009050600060085490505b600460008581526020019081526020016000208054905081101561236057612210612433565b60046000868152602001908152602001600020828154811061222e57fe5b906000526020600020016040518060400160405290816000820160009054906101000a900473ffffffffffffffffffffffffffffffffffffffff1673ffffffffffffffffffffffffffffffffffffffff1673ffffffffffffffffffffffffffffffffffffffff1681526020016000820160149054906101000a900460ff1660ff1660ff168152505090506000816020015160ff166003600088815260200190815260200160002060010154816122e057fe5b04905080600a6000846000015173ffffffffffffffffffffffffffffffffffffffff1673ffffffffffffffffffffffffffffffffffffffff1681526020019081526020016000206000828254019250508190555061234a600160085461214590919063ffffffff16565b50600184019350505080806001019150506121ea565b5060006008819055506001915050919050565b6040518060800160405280600073ffffffffffffffffffffffffffffffffffffffff16815260200160001515815260200160008152602001606081525090565b828054600181600116156101000203166002900490600052602060002090601f016020900481019282601f106123f457805160ff1916838001178555612422565b82800160010185558215612422579182015b82811115612421578251825591602001919060010190612406565b5b50905061242f91906124ae565b5090565b6040518060400160405280600073ffffffffffffffffffffffffffffffffffffffff168152602001600060ff1681525090565b50805460018160011615610100020316600290046000825580601f1061248c57506124ab565b601f0160209004906000526020600020908101906124aa91906124ae565b5b50565b6124d091905b808211156124cc5760008160009055506001016124b4565b5090565b9056fe45524332303a207472616e7366657220746f20746865207a65726f206164647265737345524332303a20617070726f766520746f20746865207a65726f20616464726573735368617265686f6c6465727320616e642073686172657320617265206e6f74206f66207468652073616d65206c656e67746845524332303a207472616e736665722066726f6d20746865207a65726f206164647265737345524332303a20617070726f76652066726f6d20746865207a65726f2061646472657373596f7520617265206e6f74207065726d697474656420746f2061636365737320746869732066696c654e6f7420616c6c6f77656420746f20617070726f766520746865206d656469612066696c65a165627a7a7230582067ed9d075489a309dfb3abaf29aa716530333b6114d0ae8904a971e5ab3290c90029",
  "source": "pragma solidity ^0.5.8;\n\nimport \"./Payments.sol\";\n\n/*\n    The market place\n*/\ncontract DiGiDiMarketPlace is Payments {\n    using SafeMath for uint256;\n\n    event IPFSAddressEvent(string, bytes32);\n    event GetMediaFilePriceEvent(uint256);\n\n    //ToDo: Connect to IPFS\n    string constant TEMPORARY_IPFS_ADDRESS = \"asdadas\";\n\n\n    constructor() public {\n\n        approverMap[msg.sender] = true;\n    }\n\n\n    // Manages that a user is able to retrieve a media file\n    function requestMediaFileStream(bytes32 mediaId) public payable returns(bool) {\n        // The price of the song\n        uint256 price = getPrice(mediaId);\n\n        require(price > 0, \"Media has no price\");\n\n        // Make sure the msg had enough ether\n        require(price <= msg.value, \"Not enough funds sent\");\n\n        require(mediaLibrary[mediaId].approved || approverMap[msg.sender], \"You are not permitted to access this file\");\n\n        // Update the balance of all stakeholders\n        updateOwed(mediaId);\n\n        // Pay back change\n        uint256 change = msg.value.sub(price);\n\n        emit IPFSAddressEvent(TEMPORARY_IPFS_ADDRESS, mediaId);\n        msg.sender.transfer(change);\n\n        return true;\n    }\n\n    function getPrice(bytes32 mediaId) public returns (uint256) {\n        emit GetMediaFilePriceEvent(mediaLibrary[mediaId].price);\n        return mediaLibrary[mediaId].price;\n    }\n}",
  "sourcePath": "/home/dehling/Development/DiGiDi/contracts/DiGiDiMarketPlace.sol",
  "compiler": {
    "name": "solc",
    "version": "0.5.8+commit.23d335f2.Emscripten.clang"
  },
  "schemaVersion": "3.0.11",
  "updatedAt": "2019-08-16T07:46:49.287Z",
  "devdoc": {
    "methods": {
      "allowance(address,address)": {
        "details": "See `IERC20.allowance`."
      },
      "approve(address,uint256)": {
        "details": "See `IERC20.approve`.     * Requirements:     * - `spender` cannot be the zero address."
      },
      "balanceOf(address)": {
        "details": "See `IERC20.balanceOf`."
      },
      "decreaseAllowance(address,uint256)": {
        "details": "Atomically decreases the allowance granted to `spender` by the caller.     * This is an alternative to `approve` that can be used as a mitigation for problems described in `IERC20.approve`.     * Emits an `Approval` event indicating the updated allowance.     * Requirements:     * - `spender` cannot be the zero address. - `spender` must have allowance for the caller of at least `subtractedValue`."
      },
      "increaseAllowance(address,uint256)": {
        "details": "Atomically increases the allowance granted to `spender` by the caller.     * This is an alternative to `approve` that can be used as a mitigation for problems described in `IERC20.approve`.     * Emits an `Approval` event indicating the updated allowance.     * Requirements:     * - `spender` cannot be the zero address."
      },
      "totalSupply()": {
        "details": "See `IERC20.totalSupply`."
      },
      "transfer(address,uint256)": {
        "details": "See `IERC20.transfer`.     * Requirements:     * - `recipient` cannot be the zero address. - the caller must have a balance of at least `amount`."
      },
      "transferFrom(address,address,uint256)": {
        "details": "See `IERC20.transferFrom`.     * Emits an `Approval` event indicating the updated allowance. This is not required by the EIP. See the note at the beginning of `ERC20`;     * Requirements: - `sender` and `recipient` cannot be the zero address. - `sender` must have a balance of at least `value`. - the caller must have allowance for `sender`'s tokens of at least `amount`."
      }
    }
  },
  "userdoc": {
    "methods": {
      "stringToBytes32(string)": {
        "notice": "Below, there are helper functions for the conversion of data types"
      }
    }
  }
}