{
  "contractName": "MediaLibrary",
  "abi": [
    {
      "constant": false,
      "inputs": [
        {
          "name": "spender",
          "type": "address"
        },
        {
          "name": "value",
          "type": "uint256"
        }
      ],
      "name": "approve",
      "outputs": [
        {
          "name": "",
          "type": "bool"
        }
      ],
      "payable": false,
      "stateMutability": "nonpayable",
      "type": "function"
    },
    {
      "constant": true,
      "inputs": [],
      "name": "totalSupply",
      "outputs": [
        {
          "name": "",
          "type": "uint256"
        }
      ],
      "payable": false,
      "stateMutability": "view",
      "type": "function"
    },
    {
      "constant": false,
      "inputs": [
        {
          "name": "sender",
          "type": "address"
        },
        {
          "name": "recipient",
          "type": "address"
        },
        {
          "name": "amount",
          "type": "uint256"
        }
      ],
      "name": "transferFrom",
      "outputs": [
        {
          "name": "",
          "type": "bool"
        }
      ],
      "payable": false,
      "stateMutability": "nonpayable",
      "type": "function"
    },
    {
      "constant": false,
      "inputs": [
        {
          "name": "spender",
          "type": "address"
        },
        {
          "name": "addedValue",
          "type": "uint256"
        }
      ],
      "name": "increaseAllowance",
      "outputs": [
        {
          "name": "",
          "type": "bool"
        }
      ],
      "payable": false,
      "stateMutability": "nonpayable",
      "type": "function"
    },
    {
      "constant": true,
      "inputs": [
        {
          "name": "account",
          "type": "address"
        }
      ],
      "name": "balanceOf",
      "outputs": [
        {
          "name": "",
          "type": "uint256"
        }
      ],
      "payable": false,
      "stateMutability": "view",
      "type": "function"
    },
    {
      "constant": false,
      "inputs": [
        {
          "name": "spender",
          "type": "address"
        },
        {
          "name": "subtractedValue",
          "type": "uint256"
        }
      ],
      "name": "decreaseAllowance",
      "outputs": [
        {
          "name": "",
          "type": "bool"
        }
      ],
      "payable": false,
      "stateMutability": "nonpayable",
      "type": "function"
    },
    {
      "constant": false,
      "inputs": [
        {
          "name": "recipient",
          "type": "address"
        },
        {
          "name": "amount",
          "type": "uint256"
        }
      ],
      "name": "transfer",
      "outputs": [
        {
          "name": "",
          "type": "bool"
        }
      ],
      "payable": false,
      "stateMutability": "nonpayable",
      "type": "function"
    },
    {
      "constant": true,
      "inputs": [
        {
          "name": "owner",
          "type": "address"
        },
        {
          "name": "spender",
          "type": "address"
        }
      ],
      "name": "allowance",
      "outputs": [
        {
          "name": "",
          "type": "uint256"
        }
      ],
      "payable": false,
      "stateMutability": "view",
      "type": "function"
    },
    {
      "inputs": [],
      "payable": false,
      "stateMutability": "nonpayable",
      "type": "constructor"
    },
    {
      "anonymous": false,
      "inputs": [
        {
          "indexed": false,
          "name": "",
          "type": "bytes32"
        }
      ],
      "name": "MediaIDEvent",
      "type": "event"
    },
    {
      "anonymous": false,
      "inputs": [
        {
          "indexed": true,
          "name": "from",
          "type": "address"
        },
        {
          "indexed": true,
          "name": "to",
          "type": "address"
        },
        {
          "indexed": false,
          "name": "value",
          "type": "uint256"
        }
      ],
      "name": "Transfer",
      "type": "event"
    },
    {
      "anonymous": false,
      "inputs": [
        {
          "indexed": true,
          "name": "owner",
          "type": "address"
        },
        {
          "indexed": true,
          "name": "spender",
          "type": "address"
        },
        {
          "indexed": false,
          "name": "value",
          "type": "uint256"
        }
      ],
      "name": "Approval",
      "type": "event"
    },
    {
      "constant": false,
      "inputs": [
        {
          "name": "mediaId",
          "type": "bytes32"
        },
        {
          "name": "price",
          "type": "uint256"
        },
        {
          "name": "ipfsAddress",
          "type": "string"
        },
        {
          "name": "shareholders",
          "type": "address[]"
        },
        {
          "name": "shares",
          "type": "uint8[]"
        }
      ],
      "name": "registerMediaFile",
      "outputs": [
        {
          "name": "",
          "type": "bool"
        }
      ],
      "payable": false,
      "stateMutability": "nonpayable",
      "type": "function"
    },
    {
      "constant": true,
      "inputs": [],
      "name": "getNumOfMediaFiles",
      "outputs": [
        {
          "name": "",
          "type": "uint256"
        }
      ],
      "payable": false,
      "stateMutability": "view",
      "type": "function"
    },
    {
      "constant": false,
      "inputs": [
        {
          "name": "oldFileHash",
          "type": "bytes32"
        },
        {
          "name": "newFileHash",
          "type": "bytes32"
        },
        {
          "name": "newPrice",
          "type": "uint8"
        },
        {
          "name": "ipfsArray",
          "type": "string"
        }
      ],
      "name": "updateMediaFile",
      "outputs": [
        {
          "name": "",
          "type": "bool"
        }
      ],
      "payable": false,
      "stateMutability": "nonpayable",
      "type": "function"
    },
    {
      "constant": false,
      "inputs": [
        {
          "name": "trackId",
          "type": "bytes32"
        }
      ],
      "name": "unregisterMediaFile",
      "outputs": [
        {
          "name": "",
          "type": "bool"
        }
      ],
      "payable": false,
      "stateMutability": "nonpayable",
      "type": "function"
    },
    {
      "constant": true,
      "inputs": [
        {
          "name": "trackId",
          "type": "string"
        },
        {
          "name": "approved",
          "type": "bool"
        }
      ],
      "name": "approveMediaFile",
      "outputs": [
        {
          "name": "",
          "type": "bool"
        }
      ],
      "payable": false,
      "stateMutability": "view",
      "type": "function"
    },
    {
      "constant": true,
      "inputs": [
        {
          "name": "source",
          "type": "string"
        }
      ],
      "name": "stringToBytes32",
      "outputs": [
        {
          "name": "result",
          "type": "bytes32"
        }
      ],
      "payable": false,
      "stateMutability": "pure",
      "type": "function"
    },
    {
      "constant": false,
      "inputs": [
        {
          "name": "usr",
          "type": "address"
        },
        {
          "name": "permission",
          "type": "bool"
        }
      ],
      "name": "updateApprover",
      "outputs": [
        {
          "name": "",
          "type": "bool"
        }
      ],
      "payable": false,
      "stateMutability": "nonpayable",
      "type": "function"
    }
  ],
  "bytecode": "0x608060405234801561001057600080fd5b5033600760006101000a81548173ffffffffffffffffffffffffffffffffffffffff021916908373ffffffffffffffffffffffffffffffffffffffff1602179055506000600681905550611e58806100696000396000f3fe608060405234801561001057600080fd5b50600436106100f55760003560e01c8063868c528811610097578063cfb5192811610066578063cfb51928146107d8578063dd62ed3e146108a7578063f435901f1461091f578063f51a19301461093d576100f5565b8063868c5288146104095780639a9bb23814610618578063a457c2d71461070c578063a9059cbb14610772576100f5565b806320ae754e116100d357806320ae754e146101e657806323b872dd146102c5578063395093511461034b57806370a08231146103b1576100f5565b8063095ea7b3146100fa5780631563461b1461016057806318160ddd146101c8575b600080fd5b6101466004803603604081101561011057600080fd5b81019080803573ffffffffffffffffffffffffffffffffffffffff16906020019092919080359060200190929190505050610983565b604051808215151515815260200191505060405180910390f35b6101ae6004803603604081101561017657600080fd5b81019080803573ffffffffffffffffffffffffffffffffffffffff16906020019092919080351515906020019092919050505061099a565b604051808215151515815260200191505060405180910390f35b6101d0610aaa565b6040518082815260200191505060405180910390f35b6102ab600480360360408110156101fc57600080fd5b810190808035906020019064010000000081111561021957600080fd5b82018360208201111561022b57600080fd5b8035906020019184600183028401116401000000008311171561024d57600080fd5b91908080601f016020809104026020016040519081016040528093929190818152602001838380828437600081840152601f19601f820116905080830192505050505050509192919290803515159060200190929190505050610ab4565b604051808215151515815260200191505060405180910390f35b610331600480360360608110156102db57600080fd5b81019080803573ffffffffffffffffffffffffffffffffffffffff169060200190929190803573ffffffffffffffffffffffffffffffffffffffff16906020019092919080359060200190929190505050610cc0565b604051808215151515815260200191505060405180910390f35b6103976004803603604081101561036157600080fd5b81019080803573ffffffffffffffffffffffffffffffffffffffff16906020019092919080359060200190929190505050610d71565b604051808215151515815260200191505060405180910390f35b6103f3600480360360208110156103c757600080fd5b81019080803573ffffffffffffffffffffffffffffffffffffffff169060200190929190505050610e16565b6040518082815260200191505060405180910390f35b6105fe600480360360a081101561041f57600080fd5b8101908080359060200190929190803590602001909291908035906020019064010000000081111561045057600080fd5b82018360208201111561046257600080fd5b8035906020019184600183028401116401000000008311171561048457600080fd5b91908080601f016020809104026020016040519081016040528093929190818152602001838380828437600081840152601f19601f820116905080830192505050505050509192919290803590602001906401000000008111156104e757600080fd5b8201836020820111156104f957600080fd5b8035906020019184602083028401116401000000008311171561051b57600080fd5b919080806020026020016040519081016040528093929190818152602001838360200280828437600081840152601f19601f8201169050808301925050505050505091929192908035906020019064010000000081111561057b57600080fd5b82018360208201111561058d57600080fd5b803590602001918460208302840111640100000000831117156105af57600080fd5b919080806020026020016040519081016040528093929190818152602001838360200280828437600081840152601f19601f820116905080830192505050505050509192919290505050610e5e565b604051808215151515815260200191505060405180910390f35b6106f26004803603608081101561062e57600080fd5b810190808035906020019092919080359060200190929190803560ff1690602001909291908035906020019064010000000081111561066c57600080fd5b82018360208201111561067e57600080fd5b803590602001918460018302840111640100000000831117156106a057600080fd5b91908080601f016020809104026020016040519081016040528093929190818152602001838380828437600081840152601f19601f82011690508083019250505050505050919291929050505061126a565b604051808215151515815260200191505060405180910390f35b6107586004803603604081101561072257600080fd5b81019080803573ffffffffffffffffffffffffffffffffffffffff1690602001909291908035906020019092919050505061142d565b604051808215151515815260200191505060405180910390f35b6107be6004803603604081101561078857600080fd5b81019080803573ffffffffffffffffffffffffffffffffffffffff169060200190929190803590602001909291905050506114d2565b604051808215151515815260200191505060405180910390f35b610891600480360360208110156107ee57600080fd5b810190808035906020019064010000000081111561080b57600080fd5b82018360208201111561081d57600080fd5b8035906020019184600183028401116401000000008311171561083f57600080fd5b91908080601f016020809104026020016040519081016040528093929190818152602001838380828437600081840152601f19601f8201169050808301925050505050505091929192905050506114e9565b6040518082815260200191505060405180910390f35b610909600480360360408110156108bd57600080fd5b81019080803573ffffffffffffffffffffffffffffffffffffffff169060200190929190803573ffffffffffffffffffffffffffffffffffffffff169060200190929190505050611514565b6040518082815260200191505060405180910390f35b61092761159b565b6040518082815260200191505060405180910390f35b6109696004803603602081101561095357600080fd5b81019080803590602001909291905050506115a5565b604051808215151515815260200191505060405180910390f35b6000610990338484611635565b6001905092915050565b6000600560003373ffffffffffffffffffffffffffffffffffffffff1673ffffffffffffffffffffffffffffffffffffffff16815260200190815260200160002060009054906101000a900460ff168015610a435750600760009054906101000a900473ffffffffffffffffffffffffffffffffffffffff1673ffffffffffffffffffffffffffffffffffffffff168373ffffffffffffffffffffffffffffffffffffffff1614155b15610aa05781600560008573ffffffffffffffffffffffffffffffffffffffff1673ffffffffffffffffffffffffffffffffffffffff16815260200190815260200160002060006101000a81548160ff0219169083151502179055505b6001905092915050565b6000600254905090565b6000600560003373ffffffffffffffffffffffffffffffffffffffff1673ffffffffffffffffffffffffffffffffffffffff16815260200190815260200160002060009054906101000a900460ff16610b58576040517f08c379a0000000000000000000000000000000000000000000000000000000008152600401808060200182810382526025815260200180611e086025913960400191505060405180910390fd5b610b60611be7565b60036000610b6d866114e9565b81526020019081526020016000206040518060800160405290816000820160009054906101000a900473ffffffffffffffffffffffffffffffffffffffff1673ffffffffffffffffffffffffffffffffffffffff1673ffffffffffffffffffffffffffffffffffffffff1681526020016000820160149054906101000a900460ff1615151515815260200160018201548152602001600282018054600181600116156101000203166002900480601f016020809104026020016040519081016040528092919081815260200182805460018160011615610100020316600290048015610c9a5780601f10610c6f57610100808354040283529160200191610c9a565b820191906000526020600020905b815481529060010190602001808311610c7d57829003601f168201915b505050505081525050905082816020019015159081151581525050600191505092915050565b6000610ccd84848461182c565b610d668433610d6185600160008a73ffffffffffffffffffffffffffffffffffffffff1673ffffffffffffffffffffffffffffffffffffffff16815260200190815260200160002060003373ffffffffffffffffffffffffffffffffffffffff1673ffffffffffffffffffffffffffffffffffffffff16815260200190815260200160002054611ac890919063ffffffff16565b611635565b600190509392505050565b6000610e0c3384610e0785600160003373ffffffffffffffffffffffffffffffffffffffff1673ffffffffffffffffffffffffffffffffffffffff16815260200190815260200160002060008973ffffffffffffffffffffffffffffffffffffffff1673ffffffffffffffffffffffffffffffffffffffff16815260200190815260200160002054611b5190919063ffffffff16565b611635565b6001905092915050565b60008060008373ffffffffffffffffffffffffffffffffffffffff1673ffffffffffffffffffffffffffffffffffffffff168152602001908152602001600020549050919050565b60008151835114610eba576040517f08c379a0000000000000000000000000000000000000000000000000000000008152600401808060200182810382526032815260200180611d8d6032913960400191505060405180910390fd5b60405180608001604052803373ffffffffffffffffffffffffffffffffffffffff168152602001600015158152602001868152602001858152506003600088815260200190815260200160002060008201518160000160006101000a81548173ffffffffffffffffffffffffffffffffffffffff021916908373ffffffffffffffffffffffffffffffffffffffff16021790555060208201518160000160146101000a81548160ff021916908315150217905550604082015181600101556060820151816002019080519060200190610f94929190611c27565b50905050600080905060008090505b84518160ff16101561111657610fb7611ca7565b6040518060400160405280878460ff1681518110610fd157fe5b602002602001015173ffffffffffffffffffffffffffffffffffffffff168152602001868460ff168151811061100357fe5b602002602001015160ff168152509050600460008a81526020019081526020016000208190806001815401808255809150509060018203906000526020600020016000909192909190915060008201518160000160006101000a81548173ffffffffffffffffffffffffffffffffffffffff021916908373ffffffffffffffffffffffffffffffffffffffff16021790555060208201518160000160146101000a81548160ff021916908360ff1602179055505050503373ffffffffffffffffffffffffffffffffffffffff16868360ff16815181106110df57fe5b602002602001015173ffffffffffffffffffffffffffffffffffffffff16141561110857600192505b508080600101915050610fa3565b5080611209576000611126611bd9565b9050611130611ca7565b60405180604001604052803373ffffffffffffffffffffffffffffffffffffffff1681526020018360ff168152509050600460008a81526020019081526020016000208190806001815401808255809150509060018203906000526020600020016000909192909190915060008201518160000160006101000a81548173ffffffffffffffffffffffffffffffffffffffff021916908373ffffffffffffffffffffffffffffffffffffffff16021790555060208201518160000160146101000a81548160ff021916908360ff16021790555050505050505b61121f6001600654611b5190919063ffffffff16565b6006819055507ff57b2c8d38a71002506306b32ba886193245cdbe9f596b91ed43c3d232425d9a876040518082815260200191505060405180910390a1600191505095945050505050565b60003373ffffffffffffffffffffffffffffffffffffffff166003600087815260200190815260200160002060000160009054906101000a900473ffffffffffffffffffffffffffffffffffffffff1673ffffffffffffffffffffffffffffffffffffffff1614156114215760036000868152602001908152602001600020600080820160006101000a81549073ffffffffffffffffffffffffffffffffffffffff02191690556000820160146101000a81549060ff0219169055600182016000905560028201600061133d9190611cda565b505060405180608001604052803373ffffffffffffffffffffffffffffffffffffffff1681526020016000151581526020018460ff168152602001838152506003600086815260200190815260200160002060008201518160000160006101000a81548173ffffffffffffffffffffffffffffffffffffffff021916908373ffffffffffffffffffffffffffffffffffffffff16021790555060208201518160000160146101000a81548160ff02191690831515021790555060408201518160010155606082015181600201908051906020019061141c929190611c27565b509050505b60019050949350505050565b60006114c833846114c385600160003373ffffffffffffffffffffffffffffffffffffffff1673ffffffffffffffffffffffffffffffffffffffff16815260200190815260200160002060008973ffffffffffffffffffffffffffffffffffffffff1673ffffffffffffffffffffffffffffffffffffffff16815260200190815260200160002054611ac890919063ffffffff16565b611635565b6001905092915050565b60006114df33848461182c565b6001905092915050565b60006060829050600081511415611506576000801b91505061150f565b60208301519150505b919050565b6000600160008473ffffffffffffffffffffffffffffffffffffffff1673ffffffffffffffffffffffffffffffffffffffff16815260200190815260200160002060008373ffffffffffffffffffffffffffffffffffffffff1673ffffffffffffffffffffffffffffffffffffffff16815260200190815260200160002054905092915050565b6000600654905090565b600060036000838152602001908152602001600020600080820160006101000a81549073ffffffffffffffffffffffffffffffffffffffff02191690556000820160146101000a81549060ff0219169055600182016000905560028201600061160e9190611cda565b50506116266001600654611ac890919063ffffffff16565b60068190555060019050919050565b600073ffffffffffffffffffffffffffffffffffffffff168373ffffffffffffffffffffffffffffffffffffffff1614156116bb576040517f08c379a0000000000000000000000000000000000000000000000000000000008152600401808060200182810382526024815260200180611de46024913960400191505060405180910390fd5b600073ffffffffffffffffffffffffffffffffffffffff168273ffffffffffffffffffffffffffffffffffffffff161415611741576040517f08c379a0000000000000000000000000000000000000000000000000000000008152600401808060200182810382526022815260200180611d6b6022913960400191505060405180910390fd5b80600160008573ffffffffffffffffffffffffffffffffffffffff1673ffffffffffffffffffffffffffffffffffffffff16815260200190815260200160002060008473ffffffffffffffffffffffffffffffffffffffff1673ffffffffffffffffffffffffffffffffffffffff168152602001908152602001600020819055508173ffffffffffffffffffffffffffffffffffffffff168373ffffffffffffffffffffffffffffffffffffffff167f8c5be1e5ebec7d5bd14f71427d1e84f3dd0314c0f7b2291e5b200ac8c7c3b925836040518082815260200191505060405180910390a3505050565b600073ffffffffffffffffffffffffffffffffffffffff168373ffffffffffffffffffffffffffffffffffffffff1614156118b2576040517f08c379a0000000000000000000000000000000000000000000000000000000008152600401808060200182810382526025815260200180611dbf6025913960400191505060405180910390fd5b600073ffffffffffffffffffffffffffffffffffffffff168273ffffffffffffffffffffffffffffffffffffffff161415611938576040517f08c379a0000000000000000000000000000000000000000000000000000000008152600401808060200182810382526023815260200180611d486023913960400191505060405180910390fd5b611989816000808673ffffffffffffffffffffffffffffffffffffffff1673ffffffffffffffffffffffffffffffffffffffff16815260200190815260200160002054611ac890919063ffffffff16565b6000808573ffffffffffffffffffffffffffffffffffffffff1673ffffffffffffffffffffffffffffffffffffffff16815260200190815260200160002081905550611a1c816000808573ffffffffffffffffffffffffffffffffffffffff1673ffffffffffffffffffffffffffffffffffffffff16815260200190815260200160002054611b5190919063ffffffff16565b6000808473ffffffffffffffffffffffffffffffffffffffff1673ffffffffffffffffffffffffffffffffffffffff168152602001908152602001600020819055508173ffffffffffffffffffffffffffffffffffffffff168373ffffffffffffffffffffffffffffffffffffffff167fddf252ad1be2c89b69c2b068fc378daa952ba7f163c4a11628f55a4df523b3ef836040518082815260200191505060405180910390a3505050565b600082821115611b40576040517f08c379a000000000000000000000000000000000000000000000000000000000815260040180806020018281038252601e8152602001807f536166654d6174683a207375627472616374696f6e206f766572666c6f77000081525060200191505060405180910390fd5b600082840390508091505092915050565b600080828401905083811015611bcf576040517f08c379a000000000000000000000000000000000000000000000000000000000815260040180806020018281038252601b8152602001807f536166654d6174683a206164646974696f6e206f766572666c6f77000000000081525060200191505060405180910390fd5b8091505092915050565b600080600390508091505090565b6040518060800160405280600073ffffffffffffffffffffffffffffffffffffffff16815260200160001515815260200160008152602001606081525090565b828054600181600116156101000203166002900490600052602060002090601f016020900481019282601f10611c6857805160ff1916838001178555611c96565b82800160010185558215611c96579182015b82811115611c95578251825591602001919060010190611c7a565b5b509050611ca39190611d22565b5090565b6040518060400160405280600073ffffffffffffffffffffffffffffffffffffffff168152602001600060ff1681525090565b50805460018160011615610100020316600290046000825580601f10611d005750611d1f565b601f016020900490600052602060002090810190611d1e9190611d22565b5b50565b611d4491905b80821115611d40576000816000905550600101611d28565b5090565b9056fe45524332303a207472616e7366657220746f20746865207a65726f206164647265737345524332303a20617070726f766520746f20746865207a65726f20616464726573735368617265686f6c6465727320616e642073686172657320617265206e6f74206f66207468652073616d65206c656e67746845524332303a207472616e736665722066726f6d20746865207a65726f206164647265737345524332303a20617070726f76652066726f6d20746865207a65726f20616464726573734e6f7420616c6c6f77656420746f20617070726f766520746865206d656469612066696c65a165627a7a72305820670905ff35acbf43a4dffbbe92a97f155bda7b6e0ca0152d0a1cff935b757aa00029",
  "source": "pragma solidity ^0.5.0;\n\nimport \"@openzeppelin/contracts/math/SafeMath.sol\";\nimport \"@openzeppelin/contracts/token/ERC20/ERC20.sol\";\n\n/*\n    The smart contract should fulfill all requirements of the ERC20 standard as required by the Drizzle Framework\n*/\n\ncontract MediaLibrary is ERC20 {\n    using SafeMath for uint256;\n\n    // The share represents the divisor\n    struct Share {\n        address shareholder;\n        uint8 share;\n    }\n\n    struct  MediaFile {\n        address artist;\n        bool approved;\n        uint256 price;\n        string ipfsAddress;\n    }\n\n    mapping(bytes32 => MediaFile) mediaLibrary;\n    mapping(bytes32 => Share[]) shareholderLibrary;\n    mapping(address => bool) approverMap;\n\n\n    uint256 numOfMediaFiles;    // Number of media files\n    address payable owner;      // Person, who deployed this smart contract\n\n    constructor() public {\n        owner = msg.sender;\n        numOfMediaFiles = 0;\n    }\n\n\n    event MediaIDEvent(bytes32);\n\n\n    // Add a new media file to the smart contract\n    function registerMediaFile(bytes32 mediaId, uint256 price, string memory ipfsAddress, address[] memory shareholders, uint8[] memory shares) public returns(bool) {\n        require(shareholders.length == shares.length, \"Shareholders and shares are not of the same length\");\n\n        mediaLibrary[mediaId] = MediaFile(msg.sender, false, price, ipfsAddress);\n\n        bool artistIncluded = false;\n\n        for(uint8 i=0; i < shareholders.length; i++) {\n            Share memory s = Share(shareholders[i], shares[i]);\n            shareholderLibrary[mediaId].push(s);\n\n            if(shareholders[i] == msg.sender)\n                artistIncluded = true;\n        }\n\n        // If the artist is not already included in the shareholder set, add her\n        if(!artistIncluded) {\n            uint8 c = calculateRestShare();\n            Share memory s = Share(msg.sender, c);\n            shareholderLibrary[mediaId].push(s);\n        }\n\n        // The media file being uploaded, downloaded, or streamed\n        numOfMediaFiles = numOfMediaFiles.add(1);\n\n        emit MediaIDEvent(mediaId);\n\n        return true;\n    }\n\n    // ToDo:\n    function calculateRestShare() internal pure returns(uint8) {\n        uint8 x = 3;\n        return x;\n    }\n\n    //Returns the current number of media files orchestrated by the smart contract\n    function getNumOfMediaFiles() public view returns(uint256) {\n        return numOfMediaFiles;\n    }\n\n    // Update a registered media file\n    function updateMediaFile(bytes32 oldFileHash, bytes32 newFileHash, uint8 newPrice, string memory ipfsArray) public returns(bool) {\n\n        if(mediaLibrary[oldFileHash].artist  == msg.sender) {\n            delete mediaLibrary[oldFileHash];\n\n            mediaLibrary[newFileHash] = MediaFile(msg.sender, false, newPrice, ipfsArray);\n        }\n\n        return true;\n    }\n\n\n    // Remove an already registered media file from the smart contract registry\n    function unregisterMediaFile(bytes32 trackId) public returns(bool) {\n        //assert(mediaLibrary[trackId].sender == tx.sender, \"You are not the owner.\");\n\n        delete mediaLibrary[trackId];\n        numOfMediaFiles = numOfMediaFiles.sub(1);\n\n        return true;\n    }\n\n\n    // Request an registered media file hash and artist\n    function checkAccessToMediaFile(string memory trackId) private view returns (bool) {\n        MediaFile memory mediaFile = mediaLibrary[stringToBytes32(trackId)];\n\n        if(mediaFile.approved == true || approverMap[msg.sender])\n            return true;\n\n        return false;\n    }\n\n    // Approve a registered media file\n    function approveMediaFile(string memory trackId, bool approved) public view returns(bool) {\n        require(approverMap[msg.sender], \"Not allowed to approve the media file\");\n\n        MediaFile memory file = mediaLibrary[stringToBytes32(trackId)];\n        file.approved = approved;\n\n        return true;\n    }\n\n\n    /**\n      Below, there are helper functions for the conversion of data types\n    */\n\n    // Convert string to bytes32\n    function stringToBytes32(string memory source) public pure returns(bytes32 result) {\n        bytes memory tmpEmptyStringTest = bytes(source);\n        if (tmpEmptyStringTest.length == 0) {\n            return 0x0;\n        }\n\n        assembly {\n            result := mload(add(source, 32))\n        }\n    }\n\n    // Set or revoke the permission to approve songs\n    function updateApprover(address usr, bool permission) public returns(bool) {\n        if(approverMap[msg.sender] && usr != owner)\n            approverMap[usr] = permission;\n\n        return true;\n    }\n}",
  "sourcePath": "/home/dehling/Development/DiGiDi/contracts/MediaLibrary.sol",
  "compiler": {
    "name": "solc",
    "version": "0.5.8+commit.23d335f2.Emscripten.clang"
  },
  "schemaVersion": "3.0.11",
  "updatedAt": "2019-08-16T07:46:49.454Z",
  "devdoc": {
    "methods": {
      "allowance(address,address)": {
        "details": "See `IERC20.allowance`."
      },
      "approve(address,uint256)": {
        "details": "See `IERC20.approve`.     * Requirements:     * - `spender` cannot be the zero address."
      },
      "balanceOf(address)": {
        "details": "See `IERC20.balanceOf`."
      },
      "decreaseAllowance(address,uint256)": {
        "details": "Atomically decreases the allowance granted to `spender` by the caller.     * This is an alternative to `approve` that can be used as a mitigation for problems described in `IERC20.approve`.     * Emits an `Approval` event indicating the updated allowance.     * Requirements:     * - `spender` cannot be the zero address. - `spender` must have allowance for the caller of at least `subtractedValue`."
      },
      "increaseAllowance(address,uint256)": {
        "details": "Atomically increases the allowance granted to `spender` by the caller.     * This is an alternative to `approve` that can be used as a mitigation for problems described in `IERC20.approve`.     * Emits an `Approval` event indicating the updated allowance.     * Requirements:     * - `spender` cannot be the zero address."
      },
      "totalSupply()": {
        "details": "See `IERC20.totalSupply`."
      },
      "transfer(address,uint256)": {
        "details": "See `IERC20.transfer`.     * Requirements:     * - `recipient` cannot be the zero address. - the caller must have a balance of at least `amount`."
      },
      "transferFrom(address,address,uint256)": {
        "details": "See `IERC20.transferFrom`.     * Emits an `Approval` event indicating the updated allowance. This is not required by the EIP. See the note at the beginning of `ERC20`;     * Requirements: - `sender` and `recipient` cannot be the zero address. - `sender` must have a balance of at least `value`. - the caller must have allowance for `sender`'s tokens of at least `amount`."
      }
    }
  },
  "userdoc": {
    "methods": {
      "stringToBytes32(string)": {
        "notice": "Below, there are helper functions for the conversion of data types"
      }
    }
  }
}